{
  "contractName": "Adoption",
  "abi": [
    {
      "inputs": [],
      "payable": false,
      "stateMutability": "nonpayable",
      "type": "constructor"
    },
    {
      "constant": true,
      "inputs": [],
      "name": "owner",
      "outputs": [
        {
          "internalType": "address payable",
          "name": "",
          "type": "address"
        }
      ],
      "payable": false,
      "stateMutability": "view",
      "type": "function"
    },
    {
      "constant": true,
      "inputs": [
        {
          "internalType": "uint256",
          "name": "",
          "type": "uint256"
        }
      ],
      "name": "pets",
      "outputs": [
        {
          "internalType": "address payable",
          "name": "adopter",
          "type": "address"
        },
        {
          "internalType": "string",
          "name": "name",
          "type": "string"
        },
        {
          "internalType": "string",
          "name": "breed",
          "type": "string"
        },
        {
          "internalType": "uint256",
          "name": "age",
          "type": "uint256"
        },
        {
          "internalType": "uint256",
          "name": "price",
          "type": "uint256"
        },
        {
          "internalType": "uint256",
          "name": "purchaseTime",
          "type": "uint256"
        },
        {
          "internalType": "address payable",
          "name": "pendingTransfer",
          "type": "address"
        },
        {
          "internalType": "bool",
          "name": "isWithdrawn",
          "type": "bool"
        }
      ],
      "payable": false,
      "stateMutability": "view",
      "type": "function"
    },
    {
      "constant": false,
      "inputs": [
        {
          "internalType": "uint256",
          "name": "petId",
          "type": "uint256"
        },
        {
          "internalType": "string",
          "name": "name",
          "type": "string"
        },
        {
          "internalType": "string",
          "name": "breed",
          "type": "string"
        },
        {
          "internalType": "uint256",
          "name": "age",
          "type": "uint256"
        }
      ],
      "name": "adopt",
      "outputs": [
        {
          "internalType": "uint256",
          "name": "",
          "type": "uint256"
        }
      ],
      "payable": true,
      "stateMutability": "payable",
      "type": "function"
    },
    {
      "constant": true,
      "inputs": [],
      "name": "getAdopters",
      "outputs": [
        {
          "internalType": "address[]",
          "name": "",
          "type": "address[]"
        }
      ],
      "payable": false,
      "stateMutability": "view",
      "type": "function"
    },
    {
      "constant": true,
      "inputs": [],
      "name": "getAdoptedPets",
      "outputs": [
        {
          "internalType": "uint256[]",
          "name": "",
          "type": "uint256[]"
        }
      ],
      "payable": false,
      "stateMutability": "view",
      "type": "function"
    },
    {
      "constant": true,
      "inputs": [],
      "name": "getTotalCollectableFee",
      "outputs": [
        {
          "internalType": "uint256",
          "name": "",
          "type": "uint256"
        }
      ],
      "payable": false,
      "stateMutability": "view",
      "type": "function"
    },
    {
      "constant": false,
      "inputs": [
        {
          "internalType": "uint256",
          "name": "petId",
          "type": "uint256"
        },
        {
          "internalType": "address payable",
          "name": "newOwner",
          "type": "address"
        }
      ],
      "name": "transferRequest",
      "outputs": [],
      "payable": false,
      "stateMutability": "nonpayable",
      "type": "function"
    },
    {
      "constant": false,
      "inputs": [
        {
          "internalType": "uint256",
          "name": "petId",
          "type": "uint256"
        }
      ],
      "name": "acceptTransfer",
      "outputs": [],
      "payable": false,
      "stateMutability": "nonpayable",
      "type": "function"
    },
    {
      "constant": false,
      "inputs": [
        {
          "internalType": "uint256",
          "name": "petId",
          "type": "uint256"
        }
      ],
      "name": "rejectTransfer",
      "outputs": [],
      "payable": false,
      "stateMutability": "nonpayable",
      "type": "function"
    },
    {
      "constant": false,
      "inputs": [
        {
          "internalType": "uint256",
          "name": "petId",
          "type": "uint256"
        }
      ],
      "name": "refund",
      "outputs": [],
      "payable": false,
      "stateMutability": "nonpayable",
      "type": "function"
    },
    {
      "constant": false,
      "inputs": [
        {
          "internalType": "uint256",
          "name": "petId",
          "type": "uint256"
        }
      ],
      "name": "cancelTransfer",
      "outputs": [],
      "payable": false,
      "stateMutability": "nonpayable",
      "type": "function"
    },
    {
      "constant": false,
      "inputs": [],
      "name": "withdraw",
      "outputs": [],
      "payable": false,
      "stateMutability": "nonpayable",
      "type": "function"
    },
    {
      "constant": true,
      "inputs": [],
      "name": "getMyAdoptedPets",
      "outputs": [
        {
          "internalType": "uint256[]",
          "name": "",
          "type": "uint256[]"
        }
      ],
      "payable": false,
      "stateMutability": "view",
      "type": "function"
    },
    {
      "constant": true,
      "inputs": [],
      "name": "getMyPendingPets",
      "outputs": [
        {
          "internalType": "uint256[]",
          "name": "",
          "type": "uint256[]"
        }
      ],
      "payable": false,
      "stateMutability": "view",
      "type": "function"
    }
  ],
  "bytecode": "0x6080604052601460025534801561001557600080fd5b50336000806101000a81548173ffffffffffffffffffffffffffffffffffffffff021916908373ffffffffffffffffffffffffffffffffffffffff16021790555061223a806100656000396000f3fe6080604052600436106100dd5760003560e01c806359caecb51161007f578063b34f9ba111610059578063b34f9ba1146104fa578063b83364b914610525578063cfb869bf14610591578063d99a16c514610737576100dd565b806359caecb5146102ee578063812aee40146103295780638da5cb5b146104a3576100dd565b8063274fae7c116100bb578063274fae7c146101f5578063278ecde1146102305780633ccfd60b1461026b5780633de4eb1714610282576100dd565b80630f46bdb1146100e25780631248a08e1461014e57806312effc32146101ba575b600080fd5b3480156100ee57600080fd5b506100f7610792565b6040518080602001828103825283818151815260200191508051906020019060200280838360005b8381101561013a57808201518184015260208101905061011f565b505050509050019250505060405180910390f35b34801561015a57600080fd5b50610163610914565b6040518080602001828103825283818151815260200191508051906020019060200280838360005b838110156101a657808201518184015260208101905061018b565b505050509050019250505060405180910390f35b3480156101c657600080fd5b506101f3600480360360208110156101dd57600080fd5b8101908080359060200190929190505050610a94565b005b34801561020157600080fd5b5061022e6004803603602081101561021857600080fd5b8101908080359060200190929190505050610ba7565b005b34801561023c57600080fd5b506102696004803603602081101561025357600080fd5b8101908080359060200190929190505050610d0f565b005b34801561027757600080fd5b5061028061111c565b005b34801561028e57600080fd5b50610297611310565b6040518080602001828103825283818151815260200191508051906020019060200280838360005b838110156102da5780820151818401526020810190506102bf565b505050509050019250505060405180910390f35b3480156102fa57600080fd5b506103276004803603602081101561031157600080fd5b81019080803590602001909291905050506113e7565b005b61048d6004803603608081101561033f57600080fd5b81019080803590602001909291908035906020019064010000000081111561036657600080fd5b82018360208201111561037857600080fd5b8035906020019184600183028401116401000000008311171561039a57600080fd5b91908080601f016020809104026020016040519081016040528093929190818152602001838380828437600081840152601f19601f820116905080830192505050505050509192919290803590602001906401000000008111156103fd57600080fd5b82018360208201111561040f57600080fd5b8035906020019184600183028401116401000000008311171561043157600080fd5b91908080601f016020809104026020016040519081016040528093929190818152602001838380828437600081840152601f19601f820116905080830192505050505050509192919290803590602001909291905050506115b6565b6040518082815260200191505060405180910390f35b3480156104af57600080fd5b506104b86118b6565b604051808273ffffffffffffffffffffffffffffffffffffffff1673ffffffffffffffffffffffffffffffffffffffff16815260200191505060405180910390f35b34801561050657600080fd5b5061050f6118db565b6040518082815260200191505060405180910390f35b34801561053157600080fd5b5061053a6119c1565b6040518080602001828103825283818151815260200191508051906020019060200280838360005b8381101561057d578082015181840152602081019050610562565b505050509050019250505060405180910390f35b34801561059d57600080fd5b506105ca600480360360208110156105b457600080fd5b8101908080359060200190929190505050611b41565b604051808973ffffffffffffffffffffffffffffffffffffffff1673ffffffffffffffffffffffffffffffffffffffff16815260200180602001806020018881526020018781526020018681526020018573ffffffffffffffffffffffffffffffffffffffff1673ffffffffffffffffffffffffffffffffffffffff1681526020018415151515815260200183810383528a818151815260200191508051906020019080838360005b8381101561068e578082015181840152602081019050610673565b50505050905090810190601f1680156106bb5780820380516001836020036101000a031916815260200191505b50838103825289818151815260200191508051906020019080838360005b838110156106f45780820151818401526020810190506106d9565b50505050905090810190601f1680156107215780820380516001836020036101000a031916815260200191505b509a505050505050505050505060405180910390f35b34801561074357600080fd5b506107906004803603604081101561075a57600080fd5b8101908080359060200190929190803573ffffffffffffffffffffffffffffffffffffffff169060200190929190505050611d06565b005b6060600080905060008090505b601081101561082857600073ffffffffffffffffffffffffffffffffffffffff166001600083815260200190815260200160002060000160009054906101000a900473ffffffffffffffffffffffffffffffffffffffff1673ffffffffffffffffffffffffffffffffffffffff161461081b5781806001019250505b808060010191505061079f565b5060608160405190808252806020026020018201604052801561085a5781602001602082028038833980820191505090505b509050600080905060008090505b601081101561090a57600073ffffffffffffffffffffffffffffffffffffffff166001600083815260200190815260200160002060000160009054906101000a900473ffffffffffffffffffffffffffffffffffffffff1673ffffffffffffffffffffffffffffffffffffffff16146108fd57808383815181106108e857fe5b60200260200101818152505081806001019250505b8080600101915050610868565b5081935050505090565b6060600080905060008090505b60108110156109aa573373ffffffffffffffffffffffffffffffffffffffff166001600083815260200190815260200160002060000160009054906101000a900473ffffffffffffffffffffffffffffffffffffffff1673ffffffffffffffffffffffffffffffffffffffff16141561099d5781806001019250505b8080600101915050610921565b506060816040519080825280602002602001820160405280156109dc5781602001602082028038833980820191505090505b5090506000915060008090505b6010811015610a8b573373ffffffffffffffffffffffffffffffffffffffff166001600083815260200190815260200160002060000160009054906101000a900473ffffffffffffffffffffffffffffffffffffffff1673ffffffffffffffffffffffffffffffffffffffff161415610a7e5780828481518110610a6957fe5b60200260200101818152505082806001019350505b80806001019150506109e9565b50809250505090565b3373ffffffffffffffffffffffffffffffffffffffff166001600083815260200190815260200160002060060160009054906101000a900473ffffffffffffffffffffffffffffffffffffffff1673ffffffffffffffffffffffffffffffffffffffff1614610b4e576040517f08c379a00000000000000000000000000000000000000000000000000000000081526004018080602001828103825260338152602001806121866033913960400191505060405180910390fd5b60006001600083815260200190815260200160002060060160006101000a81548173ffffffffffffffffffffffffffffffffffffffff021916908373ffffffffffffffffffffffffffffffffffffffff16021790555050565b3373ffffffffffffffffffffffffffffffffffffffff166001600083815260200190815260200160002060060160009054906101000a900473ffffffffffffffffffffffffffffffffffffffff1673ffffffffffffffffffffffffffffffffffffffff1614610c61576040517f08c379a00000000000000000000000000000000000000000000000000000000081526004018080602001828103825260338152602001806120d86033913960400191505060405180910390fd5b336001600083815260200190815260200160002060000160006101000a81548173ffffffffffffffffffffffffffffffffffffffff021916908373ffffffffffffffffffffffffffffffffffffffff16021790555060006001600083815260200190815260200160002060060160006101000a81548173ffffffffffffffffffffffffffffffffffffffff021916908373ffffffffffffffffffffffffffffffffffffffff16021790555050565b3373ffffffffffffffffffffffffffffffffffffffff166001600083815260200190815260200160002060000160009054906101000a900473ffffffffffffffffffffffffffffffffffffffff1673ffffffffffffffffffffffffffffffffffffffff1614610dc9576040517f08c379a000000000000000000000000000000000000000000000000000000000815260040180806020018281038252602181526020018061210b6021913960400191505060405180910390fd5b600254600160008381526020019081526020016000206005015442031115610e59576040517f08c379a00000000000000000000000000000000000000000000000000000000081526004018080602001828103825260188152602001807f526566756e6420706572696f642068617320706173736564000000000000000081525060200191505060405180910390fd5b600073ffffffffffffffffffffffffffffffffffffffff166001600083815260200190815260200160002060060160009054906101000a900473ffffffffffffffffffffffffffffffffffffffff1673ffffffffffffffffffffffffffffffffffffffff1614610f14576040517f08c379a000000000000000000000000000000000000000000000000000000000815260040180806020018281038252602f81526020018061212c602f913960400191505060405180910390fd5b3373ffffffffffffffffffffffffffffffffffffffff166108fc60016000848152602001908152602001600020600401549081150290604051600060405180830381858888f19350505050158015610f70573d6000803e3d6000fd5b50604051806101000160405280600073ffffffffffffffffffffffffffffffffffffffff168152602001604051806020016040528060008152508152602001604051806020016040528060008152508152602001600081526020016000815260200160008152602001600073ffffffffffffffffffffffffffffffffffffffff168152602001600015158152506001600083815260200190815260200160002060008201518160000160006101000a81548173ffffffffffffffffffffffffffffffffffffffff021916908373ffffffffffffffffffffffffffffffffffffffff1602179055506020820151816001019080519060200190611073929190611f76565b506040820151816002019080519060200190611090929190611f76565b50606082015181600301556080820151816004015560a0820151816005015560c08201518160060160006101000a81548173ffffffffffffffffffffffffffffffffffffffff021916908373ffffffffffffffffffffffffffffffffffffffff16021790555060e08201518160060160146101000a81548160ff02191690831515021790555090505050565b6000809054906101000a900473ffffffffffffffffffffffffffffffffffffffff1673ffffffffffffffffffffffffffffffffffffffff163373ffffffffffffffffffffffffffffffffffffffff16146111c1576040517f08c379a000000000000000000000000000000000000000000000000000000000815260040180806020018281038252602181526020018061208f6021913960400191505060405180910390fd5b60008090505b601081101561130d576000600160008381526020019081526020016000209050600073ffffffffffffffffffffffffffffffffffffffff168160000160009054906101000a900473ffffffffffffffffffffffffffffffffffffffff1673ffffffffffffffffffffffffffffffffffffffff161415801561124f575060025481600501544203115b801561126a57508060060160149054906101000a900460ff16155b156112ff576000816004015490506000809054906101000a900473ffffffffffffffffffffffffffffffffffffffff1673ffffffffffffffffffffffffffffffffffffffff166108fc829081150290604051600060405180830381858888f193505050501580156112df573d6000803e3d6000fd5b5060018260060160146101000a81548160ff021916908315150217905550505b5080806001019150506111c7565b50565b60608060106040519080825280602002602001820160405280156113435781602001602082028038833980820191505090505b50905060008090505b60108110156113df576001600082815260200190815260200160002060000160009054906101000a900473ffffffffffffffffffffffffffffffffffffffff1682828151811061139857fe5b602002602001019073ffffffffffffffffffffffffffffffffffffffff16908173ffffffffffffffffffffffffffffffffffffffff1681525050808060010191505061134c565b508091505090565b3373ffffffffffffffffffffffffffffffffffffffff166001600083815260200190815260200160002060000160009054906101000a900473ffffffffffffffffffffffffffffffffffffffff1673ffffffffffffffffffffffffffffffffffffffff16146114a1576040517f08c379a00000000000000000000000000000000000000000000000000000000081526004018080602001828103825260268152602001806121e06026913960400191505060405180910390fd5b600073ffffffffffffffffffffffffffffffffffffffff166001600083815260200190815260200160002060060160009054906101000a900473ffffffffffffffffffffffffffffffffffffffff1673ffffffffffffffffffffffffffffffffffffffff16141561155d576040517f08c379a000000000000000000000000000000000000000000000000000000000815260040180806020018281038252602b81526020018061215b602b913960400191505060405180910390fd5b60006001600083815260200190815260200160002060060160006101000a81548173ffffffffffffffffffffffffffffffffffffffff021916908373ffffffffffffffffffffffffffffffffffffffff16021790555050565b60008085101580156115c95750600f8511155b61163b576040517f08c379a00000000000000000000000000000000000000000000000000000000081526004018080602001828103825260138152602001807f506574204944206973206e6f742076616c69640000000000000000000000000081525060200191505060405180910390fd5b600073ffffffffffffffffffffffffffffffffffffffff166001600087815260200190815260200160002060000160009054906101000a900473ffffffffffffffffffffffffffffffffffffffff1673ffffffffffffffffffffffffffffffffffffffff1614611713576040517f08c379a00000000000000000000000000000000000000000000000000000000081526004018080602001828103825260198152602001807f546869732070657420686173206265656e2061646f707465640000000000000081525060200191505060405180910390fd5b6000429050611720611ff6565b6040518061010001604052803373ffffffffffffffffffffffffffffffffffffffff168152602001878152602001868152602001858152602001348152602001838152602001600073ffffffffffffffffffffffffffffffffffffffff168152602001600015158152509050806001600089815260200190815260200160002060008201518160000160006101000a81548173ffffffffffffffffffffffffffffffffffffffff021916908373ffffffffffffffffffffffffffffffffffffffff1602179055506020820151816001019080519060200190611803929190611f76565b506040820151816002019080519060200190611820929190611f76565b50606082015181600301556080820151816004015560a0820151816005015560c08201518160060160006101000a81548173ffffffffffffffffffffffffffffffffffffffff021916908373ffffffffffffffffffffffffffffffffffffffff16021790555060e08201518160060160146101000a81548160ff0219169083151502179055509050508692505050949350505050565b6000809054906101000a900473ffffffffffffffffffffffffffffffffffffffff1681565b6000806000905060008090505b60108110156119b957600073ffffffffffffffffffffffffffffffffffffffff166001600083815260200190815260200160002060000160009054906101000a900473ffffffffffffffffffffffffffffffffffffffff1673ffffffffffffffffffffffffffffffffffffffff161415801561198b5750600015156001600083815260200190815260200160002060060160149054906101000a900460ff161515145b156119ac576001600082815260200190815260200160002060040154820191505b80806001019150506118e8565b508091505090565b6060600080905060008090505b6010811015611a57573373ffffffffffffffffffffffffffffffffffffffff166001600083815260200190815260200160002060060160009054906101000a900473ffffffffffffffffffffffffffffffffffffffff1673ffffffffffffffffffffffffffffffffffffffff161415611a4a5781806001019250505b80806001019150506119ce565b50606081604051908082528060200260200182016040528015611a895781602001602082028038833980820191505090505b5090506000915060008090505b6010811015611b38573373ffffffffffffffffffffffffffffffffffffffff166001600083815260200190815260200160002060060160009054906101000a900473ffffffffffffffffffffffffffffffffffffffff1673ffffffffffffffffffffffffffffffffffffffff161415611b2b5780828481518110611b1657fe5b60200260200101818152505082806001019350505b8080600101915050611a96565b50809250505090565b60016020528060005260406000206000915090508060000160009054906101000a900473ffffffffffffffffffffffffffffffffffffffff1690806001018054600181600116156101000203166002900480601f016020809104026020016040519081016040528092919081815260200182805460018160011615610100020316600290048015611c135780601f10611be857610100808354040283529160200191611c13565b820191906000526020600020905b815481529060010190602001808311611bf657829003601f168201915b505050505090806002018054600181600116156101000203166002900480601f016020809104026020016040519081016040528092919081815260200182805460018160011615610100020316600290048015611cb15780601f10611c8657610100808354040283529160200191611cb1565b820191906000526020600020905b815481529060010190602001808311611c9457829003601f168201915b5050505050908060030154908060040154908060050154908060060160009054906101000a900473ffffffffffffffffffffffffffffffffffffffff16908060060160149054906101000a900460ff16905088565b3373ffffffffffffffffffffffffffffffffffffffff166001600084815260200190815260200160002060000160009054906101000a900473ffffffffffffffffffffffffffffffffffffffff1673ffffffffffffffffffffffffffffffffffffffff1614611dc0576040517f08c379a00000000000000000000000000000000000000000000000000000000081526004018080602001828103825260288152602001806120b06028913960400191505060405180910390fd5b600073ffffffffffffffffffffffffffffffffffffffff166001600084815260200190815260200160002060060160009054906101000a900473ffffffffffffffffffffffffffffffffffffffff1673ffffffffffffffffffffffffffffffffffffffff1614611e7b576040517f08c379a00000000000000000000000000000000000000000000000000000000081526004018080602001828103825260278152602001806121b96027913960400191505060405180910390fd5b3373ffffffffffffffffffffffffffffffffffffffff168173ffffffffffffffffffffffffffffffffffffffff161415611f1d576040517f08c379a000000000000000000000000000000000000000000000000000000000815260040180806020018281038252601b8152602001807f43616e206e6f74207472616e7366657220746f20796f7573656c66000000000081525060200191505060405180910390fd5b806001600084815260200190815260200160002060060160006101000a81548173ffffffffffffffffffffffffffffffffffffffff021916908373ffffffffffffffffffffffffffffffffffffffff1602179055505050565b828054600181600116156101000203166002900490600052602060002090601f016020900481019282601f10611fb757805160ff1916838001178555611fe5565b82800160010185558215611fe5579182015b82811115611fe4578251825591602001919060010190611fc9565b5b509050611ff29190612069565b5090565b604051806101000160405280600073ffffffffffffffffffffffffffffffffffffffff1681526020016060815260200160608152602001600081526020016000815260200160008152602001600073ffffffffffffffffffffffffffffffffffffffff1681526020016000151581525090565b61208b91905b8082111561208757600081600090555060010161206f565b5090565b9056fe4f6e6c7920746865206f776e65722063616e2077697468647261772066756e64734f6e6c79207468652061646f707465722063616e20696e6974696174652061207472616e736665724f6e6c79207468652070726f706f736564206e6577206f776e65722063616e2061636365707420746865207472616e736665724f6e6c79207468652061646f707465722063616e20726566756e6420612070657443616e6e6f7420726566756e6420612070657420746861742068617320612070656e64696e67207472616e736665725065742069732063757272656e746c79206e6f7420696e766f6c76656420696e2061207472616e736665724f6e6c79207468652070726f706f736564206e6577206f776e65722063616e2072656a65637420746865207472616e736665725065742069732063757272656e746c7920696e766f6c76656420696e2061207472616e736665724f6e6c79207468652061646f707465722063616e2063616e63656c2061207472616e73666572a265627a7a72315820b8cfb52f0022ed508d0ee014d23b8bd5bb9a0b562911f0a28c68a9063465c63064736f6c63430005100032",
  "source": "pragma solidity ^0.5.0;\n\ncontract Adoption {\n    address payable public owner;\n    struct Pet {\n        address payable adopter;\n        string name;\n        string breed;\n        uint age;\n        uint price;\n        uint purchaseTime;\n        address payable pendingTransfer;\n        bool isWithdrawn;\n    }\n\n\n    mapping(uint => Pet) public pets;\n\n    uint refundPeriod = 20; //14 days; // refund period\n\n    constructor() public {\n        owner = msg.sender;\n    }\n\n    // Adopting a pet\n    function adopt(uint petId, string memory name, string memory breed, uint age) public payable returns (uint) {\n        require(petId >= 0 && petId <= 15, \"Pet ID is not valid\");\n        require(pets[petId].adopter == address(0), \"This pet has been adopted\");\n        uint pTime = now;\n        Pet memory newPet = Pet({\n            adopter: msg.sender,\n            name: name,\n            breed: breed,\n            age: age,\n            price: msg.value, // price of the pet is the sent Ether\n            purchaseTime: pTime,\n            pendingTransfer: address(0),\n            isWithdrawn: false\n        });\n\n        pets[petId] = newPet;\n\n        return petId;\n    }\n\n    // Retrieving the adopters\n    function getAdopters() public view returns (address[] memory) {\n        address[] memory adopters = new address[](16);\n        for (uint i = 0; i < 16; i++) {\n            adopters[i] = pets[i].adopter;\n        }\n        return adopters;\n    }\n    //filt adopted pets\n    function getAdoptedPets() public view returns (uint[] memory) {\n        uint count = 0;\n        for (uint i = 0; i < 16; i++) {\n            if (pets[i].adopter != address(0)) {\n                count++;\n            }\n        }\n\n        uint[] memory adoptedPets = new uint[](count);\n        uint index = 0;\n        for (uint i = 0; i < 16; i++) {\n            if (pets[i].adopter != address(0)) {\n                adoptedPets[index] = i;\n                index++;\n            }\n        }\n        return adoptedPets;\n    }\n    //caculate totol collectable fee\n    function getTotalCollectableFee() public view returns (uint) {\n        uint totalCollectableFee = 0;\n        for (uint i = 0; i < 16; i++) {\n            if (pets[i].adopter != address(0) && pets[i].isWithdrawn == false) {\n                totalCollectableFee += pets[i].price;\n            }\n        }\n        return totalCollectableFee;\n    }\n\n    //called by the current owner of the pet to initiate a transfer\n    function transferRequest(uint petId, address payable newOwner) public {\n        require(pets[petId].adopter == msg.sender, \"Only the adopter can initiate a transfer\");\n        require(pets[petId].pendingTransfer == address(0), \"Pet is currently involved in a transfer\");\n        require(newOwner != msg.sender, \"Can not transfer to youself\");\n        // Set a pending transfer for the pet to the new owner\n        pets[petId].pendingTransfer = newOwner;\n    }   \n\n    //allows the proposed new owner to accept the pet\n    function acceptTransfer(uint petId) public {\n        require(pets[petId].pendingTransfer == msg.sender, \"Only the proposed new owner can accept the transfer\");\n        // Update the adopter and purchase time of the pet, reset the pending transfer\n        pets[petId].adopter = msg.sender;\n        pets[petId].pendingTransfer = address(0);\n    }\n    //allows the proposed new owner to reject the pet\n    function rejectTransfer(uint petId) public {\n        require(pets[petId].pendingTransfer == msg.sender, \"Only the proposed new owner can reject the transfer\");\n        // Update the adopter and purchase time of the pet, reset the pending transfer\n        pets[petId].pendingTransfer = address(0);\n    }\n    // Refunding the pet\n    function refund(uint petId) public {\n        require(pets[petId].adopter == msg.sender, \"Only the adopter can refund a pet\");\n        require(now - pets[petId].purchaseTime <= refundPeriod, \"Refund period has passed\");\n        require(pets[petId].pendingTransfer == address(0), \"Cannot refund a pet that has a pending transfer\");\n        msg.sender.transfer(pets[petId].price);\n\n        // Reset the pet\n        pets[petId] = Pet({\n            adopter: address(0),\n            name: \"\",\n            breed: \"\",\n            age: 0,\n            price: 0,\n            purchaseTime: 0,\n            pendingTransfer: address(0),\n            isWithdrawn: false\n        });\n    }\n\n    function cancelTransfer(uint petId) public {\n        require(pets[petId].adopter == msg.sender, \"Only the adopter can cancel a transfer\");\n        require(pets[petId].pendingTransfer != address(0), \"Pet is currently not involved in a transfer\");\n        // cancel a pending transfer \n        pets[petId].pendingTransfer = address(0);\n    }\n\n    //The owner can withdraw the contract\n   function withdraw() public {\n        require(msg.sender == owner, \"Only the owner can withdraw funds\");\n        // Check all pets\n        for (uint i = 0; i < 16; i++) {\n            Pet storage pet = pets[i];\n\n            // If a pet is adopted and the refund period is over and the funds have not been withdrawn yet\n            if (pet.adopter != address(0) && (now - pet.purchaseTime > refundPeriod) && !pet.isWithdrawn) {\n\n                uint256 amount = pet.price;\n\n                // Transfer the funds\n                owner.transfer(amount);\n\n                // Update the price and the isWithdrawn flag\n                pet.isWithdrawn = true;\n            }\n        }\n    }\n\n    function getMyAdoptedPets() public view returns (uint[] memory) {\n        uint countAdopted = 0;\n        \n        for (uint i = 0; i < 16; i++) {\n            if (pets[i].adopter == msg.sender) {\n                countAdopted++;\n            } \n        }\n\n        // Create array of pet IDs\n        uint[] memory adoptedPets = new uint[](countAdopted);\n\n        countAdopted = 0;\n\n        for (uint i = 0; i < 16; i++) {\n            if (pets[i].adopter == msg.sender) {\n                adoptedPets[countAdopted] = i;\n                countAdopted++;\n            } \n        }\n        \n        return adoptedPets;\n    }\n\n\n    function getMyPendingPets() public view returns (uint[] memory) {\n        uint countPending = 0;\n\n        for (uint i = 0; i < 16; i++) {\n            if (pets[i].pendingTransfer == msg.sender) {\n                countPending++;\n            }\n        }\n\n        // Create array of pet IDs\n        uint[] memory pendingPets = new uint[](countPending);\n\n        countPending = 0;\n\n        for (uint i = 0; i < 16; i++) {\n            if (pets[i].pendingTransfer == msg.sender) {\n                pendingPets[countPending] = i;\n                countPending++;\n            }\n        }\n        \n        return pendingPets;\n    }\n\n\n\n}\n\n",
  "sourcePath": "F:/UofT/1050/Petshop/contracts/Adoption.sol",
  "compiler": {
    "name": "solc",
    "version": "0.5.16+commit.9c3226ce.Emscripten.clang"
  },
  "schemaVersion": "3.0.22",
  "updatedAt": "2023-11-14T22:54:17.975Z",
  "devdoc": {
    "methods": {}
  },
  "userdoc": {
    "methods": {}
  }
}