{
  "contractName": "Donation",
  "abi": [
    {
      "inputs": [],
      "payable": false,
      "stateMutability": "nonpayable",
      "type": "constructor"
    },
    {
      "constant": true,
      "inputs": [],
      "name": "owner",
      "outputs": [
        {
          "internalType": "address payable",
          "name": "",
          "type": "address"
        }
      ],
      "payable": false,
      "stateMutability": "view",
      "type": "function"
    },
    {
      "constant": true,
      "inputs": [
        {
          "internalType": "uint256",
          "name": "",
          "type": "uint256"
        }
      ],
      "name": "pets",
      "outputs": [
        {
          "internalType": "address payable",
          "name": "donater",
          "type": "address"
        },
        {
          "internalType": "string",
          "name": "name",
          "type": "string"
        },
        {
          "internalType": "string",
          "name": "breed",
          "type": "string"
        },
        {
          "internalType": "uint256",
          "name": "age",
          "type": "uint256"
        },
        {
          "internalType": "uint256",
          "name": "donation",
          "type": "uint256"
        },
        {
          "internalType": "uint256",
          "name": "purchaseTime",
          "type": "uint256"
        },
        {
          "internalType": "address payable",
          "name": "pendingTransfer",
          "type": "address"
        },
        {
          "internalType": "bool",
          "name": "isWithdrawn",
          "type": "bool"
        }
      ],
      "payable": false,
      "stateMutability": "view",
      "type": "function"
    },
    {
      "constant": false,
      "inputs": [
        {
          "internalType": "uint256",
          "name": "petId",
          "type": "uint256"
        },
        {
          "internalType": "string",
          "name": "name",
          "type": "string"
        },
        {
          "internalType": "string",
          "name": "breed",
          "type": "string"
        },
        {
          "internalType": "uint256",
          "name": "age",
          "type": "uint256"
        },
        {
          "internalType": "uint256",
          "name": "price",
          "type": "uint256"
        }
      ],
      "name": "donate",
      "outputs": [
        {
          "internalType": "uint256",
          "name": "",
          "type": "uint256"
        }
      ],
      "payable": true,
      "stateMutability": "payable",
      "type": "function"
    },
    {
      "constant": true,
      "inputs": [],
      "name": "getDonaters",
      "outputs": [
        {
          "internalType": "address[]",
          "name": "",
          "type": "address[]"
        }
      ],
      "payable": false,
      "stateMutability": "view",
      "type": "function"
    },
    {
      "constant": true,
      "inputs": [],
      "name": "getDonatedPets",
      "outputs": [
        {
          "internalType": "uint256[]",
          "name": "",
          "type": "uint256[]"
        }
      ],
      "payable": false,
      "stateMutability": "view",
      "type": "function"
    },
    {
      "constant": true,
      "inputs": [],
      "name": "getAllPets",
      "outputs": [
        {
          "internalType": "uint256[]",
          "name": "",
          "type": "uint256[]"
        }
      ],
      "payable": false,
      "stateMutability": "view",
      "type": "function"
    },
    {
      "constant": true,
      "inputs": [],
      "name": "getTotalCollectableFee",
      "outputs": [
        {
          "internalType": "uint256",
          "name": "",
          "type": "uint256"
        }
      ],
      "payable": false,
      "stateMutability": "view",
      "type": "function"
    },
    {
      "constant": false,
      "inputs": [
        {
          "internalType": "uint256",
          "name": "petId",
          "type": "uint256"
        },
        {
          "internalType": "address payable",
          "name": "newOwner",
          "type": "address"
        }
      ],
      "name": "transferRequest",
      "outputs": [],
      "payable": false,
      "stateMutability": "nonpayable",
      "type": "function"
    },
    {
      "constant": false,
      "inputs": [
        {
          "internalType": "uint256",
          "name": "petId",
          "type": "uint256"
        }
      ],
      "name": "acceptTransfer",
      "outputs": [],
      "payable": false,
      "stateMutability": "nonpayable",
      "type": "function"
    },
    {
      "constant": false,
      "inputs": [
        {
          "internalType": "uint256",
          "name": "petId",
          "type": "uint256"
        }
      ],
      "name": "rejectTransfer",
      "outputs": [],
      "payable": false,
      "stateMutability": "nonpayable",
      "type": "function"
    },
    {
      "constant": false,
      "inputs": [
        {
          "internalType": "uint256",
          "name": "petId",
          "type": "uint256"
        }
      ],
      "name": "refund",
      "outputs": [],
      "payable": false,
      "stateMutability": "nonpayable",
      "type": "function"
    },
    {
      "constant": false,
      "inputs": [],
      "name": "withdraw",
      "outputs": [],
      "payable": false,
      "stateMutability": "nonpayable",
      "type": "function"
    },
    {
      "constant": true,
      "inputs": [
        {
          "internalType": "uint256",
          "name": "petId",
          "type": "uint256"
        }
      ],
      "name": "getDonation",
      "outputs": [
        {
          "internalType": "uint256",
          "name": "",
          "type": "uint256"
        }
      ],
      "payable": false,
      "stateMutability": "view",
      "type": "function"
    }
  ],
  "bytecode": "0x6080604052601460025534801561001557600080fd5b50336000806101000a81548173ffffffffffffffffffffffffffffffffffffffff021916908373ffffffffffffffffffffffffffffffffffffffff160217905550611c8f806100656000396000f3fe6080604052600436106100c25760003560e01c80638da5cb5b1161007f578063d99a16c511610059578063d99a16c5146105a7578063e0749dd014610602578063ef07a81f1461066e578063f47be5c7146106bd576100c2565b80638da5cb5b1461037f578063b34f9ba1146103d6578063cfb869bf14610401576100c2565b806312effc32146100c7578063274fae7c14610102578063278ecde11461013d5780633ccfd60b146101785780634e55ddd81461018f5780635b236d9714610313575b600080fd5b3480156100d357600080fd5b50610100600480360360208110156100ea57600080fd5b8101908080359060200190929190505050610729565b005b34801561010e57600080fd5b5061013b6004803603602081101561012557600080fd5b810190808035906020019092919050505061083c565b005b34801561014957600080fd5b506101766004803603602081101561016057600080fd5b81019080803590602001909291905050506109a4565b005b34801561018457600080fd5b5061018d610db1565b005b6102fd600480360360a08110156101a557600080fd5b8101908080359060200190929190803590602001906401000000008111156101cc57600080fd5b8201836020820111156101de57600080fd5b8035906020019184600183028401116401000000008311171561020057600080fd5b91908080601f016020809104026020016040519081016040528093929190818152602001838380828437600081840152601f19601f8201169050808301925050505050505091929192908035906020019064010000000081111561026357600080fd5b82018360208201111561027557600080fd5b8035906020019184600183028401116401000000008311171561029757600080fd5b91908080601f016020809104026020016040519081016040528093929190818152602001838380828437600081840152601f19601f8201169050808301925050505050505091929192908035906020019092919080359060200190929190505050610fa5565b6040518082815260200191505060405180910390f35b34801561031f57600080fd5b50610328611257565b6040518080602001828103825283818151815260200191508051906020019060200280838360005b8381101561036b578082015181840152602081019050610350565b505050509050019250505060405180910390f35b34801561038b57600080fd5b506103946112e0565b604051808273ffffffffffffffffffffffffffffffffffffffff1673ffffffffffffffffffffffffffffffffffffffff16815260200191505060405180910390f35b3480156103e257600080fd5b506103eb611305565b6040518082815260200191505060405180910390f35b34801561040d57600080fd5b5061043a6004803603602081101561042457600080fd5b81019080803590602001909291905050506113eb565b604051808973ffffffffffffffffffffffffffffffffffffffff1673ffffffffffffffffffffffffffffffffffffffff16815260200180602001806020018881526020018781526020018681526020018573ffffffffffffffffffffffffffffffffffffffff1673ffffffffffffffffffffffffffffffffffffffff1681526020018415151515815260200183810383528a818151815260200191508051906020019080838360005b838110156104fe5780820151818401526020810190506104e3565b50505050905090810190601f16801561052b5780820380516001836020036101000a031916815260200191505b50838103825289818151815260200191508051906020019080838360005b83811015610564578082015181840152602081019050610549565b50505050905090810190601f1680156105915780820380516001836020036101000a031916815260200191505b509a505050505050505050505060405180910390f35b3480156105b357600080fd5b50610600600480360360408110156105ca57600080fd5b8101908080359060200190929190803573ffffffffffffffffffffffffffffffffffffffff1690602001909291905050506115b0565b005b34801561060e57600080fd5b5061061761177e565b6040518080602001828103825283818151815260200191508051906020019060200280838360005b8381101561065a57808201518184015260208101905061063f565b505050509050019250505060405180910390f35b34801561067a57600080fd5b506106a76004803603602081101561069157600080fd5b8101908080359060200190929190505050611900565b6040518082815260200191505060405180910390f35b3480156106c957600080fd5b506106d2611920565b6040518080602001828103825283818151815260200191508051906020019060200280838360005b838110156107155780820151818401526020810190506106fa565b505050509050019250505060405180910390f35b3373ffffffffffffffffffffffffffffffffffffffff166001600083815260200190815260200160002060060160009054906101000a900473ffffffffffffffffffffffffffffffffffffffff1673ffffffffffffffffffffffffffffffffffffffff16146107e3576040517f08c379a0000000000000000000000000000000000000000000000000000000008152600401808060200182810382526033815260200180611c016033913960400191505060405180910390fd5b60006001600083815260200190815260200160002060060160006101000a81548173ffffffffffffffffffffffffffffffffffffffff021916908373ffffffffffffffffffffffffffffffffffffffff16021790555050565b3373ffffffffffffffffffffffffffffffffffffffff166001600083815260200190815260200160002060060160009054906101000a900473ffffffffffffffffffffffffffffffffffffffff1673ffffffffffffffffffffffffffffffffffffffff16146108f6576040517f08c379a0000000000000000000000000000000000000000000000000000000008152600401808060200182810382526033815260200180611b526033913960400191505060405180910390fd5b336001600083815260200190815260200160002060000160006101000a81548173ffffffffffffffffffffffffffffffffffffffff021916908373ffffffffffffffffffffffffffffffffffffffff16021790555060006001600083815260200190815260200160002060060160006101000a81548173ffffffffffffffffffffffffffffffffffffffff021916908373ffffffffffffffffffffffffffffffffffffffff16021790555050565b3373ffffffffffffffffffffffffffffffffffffffff166001600083815260200190815260200160002060000160009054906101000a900473ffffffffffffffffffffffffffffffffffffffff1673ffffffffffffffffffffffffffffffffffffffff1614610a5e576040517f08c379a0000000000000000000000000000000000000000000000000000000008152600401808060200182810382526021815260200180611b106021913960400191505060405180910390fd5b600254600160008381526020019081526020016000206005015442031115610aee576040517f08c379a00000000000000000000000000000000000000000000000000000000081526004018080602001828103825260188152602001807f526566756e6420706572696f642068617320706173736564000000000000000081525060200191505060405180910390fd5b600073ffffffffffffffffffffffffffffffffffffffff166001600083815260200190815260200160002060060160009054906101000a900473ffffffffffffffffffffffffffffffffffffffff1673ffffffffffffffffffffffffffffffffffffffff1614610ba9576040517f08c379a000000000000000000000000000000000000000000000000000000000815260040180806020018281038252602f815260200180611b85602f913960400191505060405180910390fd5b3373ffffffffffffffffffffffffffffffffffffffff166108fc60016000848152602001908152602001600020600401549081150290604051600060405180830381858888f19350505050158015610c05573d6000803e3d6000fd5b50604051806101000160405280600073ffffffffffffffffffffffffffffffffffffffff168152602001604051806020016040528060008152508152602001604051806020016040528060008152508152602001600081526020016000815260200160008152602001600073ffffffffffffffffffffffffffffffffffffffff168152602001600015158152506001600083815260200190815260200160002060008201518160000160006101000a81548173ffffffffffffffffffffffffffffffffffffffff021916908373ffffffffffffffffffffffffffffffffffffffff1602179055506020820151816001019080519060200190610d089291906119f7565b506040820151816002019080519060200190610d259291906119f7565b50606082015181600301556080820151816004015560a0820151816005015560c08201518160060160006101000a81548173ffffffffffffffffffffffffffffffffffffffff021916908373ffffffffffffffffffffffffffffffffffffffff16021790555060e08201518160060160146101000a81548160ff02191690831515021790555090505050565b6000809054906101000a900473ffffffffffffffffffffffffffffffffffffffff1673ffffffffffffffffffffffffffffffffffffffff163373ffffffffffffffffffffffffffffffffffffffff1614610e56576040517f08c379a0000000000000000000000000000000000000000000000000000000008152600401808060200182810382526021815260200180611b316021913960400191505060405180910390fd5b60008090505b6010811015610fa2576000600160008381526020019081526020016000209050600073ffffffffffffffffffffffffffffffffffffffff168160000160009054906101000a900473ffffffffffffffffffffffffffffffffffffffff1673ffffffffffffffffffffffffffffffffffffffff1614158015610ee4575060025481600501544203115b8015610eff57508060060160149054906101000a900460ff16155b15610f94576000816004015490506000809054906101000a900473ffffffffffffffffffffffffffffffffffffffff1673ffffffffffffffffffffffffffffffffffffffff166108fc829081150290604051600060405180830381858888f19350505050158015610f74573d6000803e3d6000fd5b5060018260060160146101000a81548160ff021916908315150217905550505b508080600101915050610e5c565b50565b6000808610158015610fb85750600f8611155b61102a576040517f08c379a00000000000000000000000000000000000000000000000000000000081526004018080602001828103825260138152602001807f506574204944206973206e6f742076616c69640000000000000000000000000081525060200191505060405180910390fd5b8160016000888152602001908152602001600020600401543401111561109b576040517f08c379a0000000000000000000000000000000000000000000000000000000008152600401808060200182810382526025815260200180611bb46025913960400191505060405180910390fd5b60004290506110a8611a77565b6040518061010001604052803373ffffffffffffffffffffffffffffffffffffffff168152602001888152602001878152602001868152602001600160008b81526020019081526020016000206004015434018152602001838152602001600073ffffffffffffffffffffffffffffffffffffffff16815260200160001515815250905080600160008a815260200190815260200160002060008201518160000160006101000a81548173ffffffffffffffffffffffffffffffffffffffff021916908373ffffffffffffffffffffffffffffffffffffffff16021790555060208201518160010190805190602001906111a39291906119f7565b5060408201518160020190805190602001906111c09291906119f7565b50606082015181600301556080820151816004015560a0820151816005015560c08201518160060160006101000a81548173ffffffffffffffffffffffffffffffffffffffff021916908373ffffffffffffffffffffffffffffffffffffffff16021790555060e08201518160060160146101000a81548160ff021916908315150217905550905050879250505095945050505050565b606080601060405190808252806020026020018201604052801561128a5781602001602082028038833980820191505090505b50905060008090505b60108110156112d85760016000828152602001908152602001600020600401548282815181106112bf57fe5b6020026020010181815250508080600101915050611293565b508091505090565b6000809054906101000a900473ffffffffffffffffffffffffffffffffffffffff1681565b6000806000905060008090505b60108110156113e357600073ffffffffffffffffffffffffffffffffffffffff166001600083815260200190815260200160002060000160009054906101000a900473ffffffffffffffffffffffffffffffffffffffff1673ffffffffffffffffffffffffffffffffffffffff16141580156113b55750600015156001600083815260200190815260200160002060060160149054906101000a900460ff161515145b156113d6576001600082815260200190815260200160002060040154820191505b8080600101915050611312565b508091505090565b60016020528060005260406000206000915090508060000160009054906101000a900473ffffffffffffffffffffffffffffffffffffffff1690806001018054600181600116156101000203166002900480601f0160208091040260200160405190810160405280929190818152602001828054600181600116156101000203166002900480156114bd5780601f10611492576101008083540402835291602001916114bd565b820191906000526020600020905b8154815290600101906020018083116114a057829003601f168201915b505050505090806002018054600181600116156101000203166002900480601f01602080910402602001604051908101604052809291908181526020018280546001816001161561010002031660029004801561155b5780601f106115305761010080835404028352916020019161155b565b820191906000526020600020905b81548152906001019060200180831161153e57829003601f168201915b5050505050908060030154908060040154908060050154908060060160009054906101000a900473ffffffffffffffffffffffffffffffffffffffff16908060060160149054906101000a900460ff16905088565b3373ffffffffffffffffffffffffffffffffffffffff166001600084815260200190815260200160002060000160009054906101000a900473ffffffffffffffffffffffffffffffffffffffff1673ffffffffffffffffffffffffffffffffffffffff161461166a576040517f08c379a0000000000000000000000000000000000000000000000000000000008152600401808060200182810382526028815260200180611bd96028913960400191505060405180910390fd5b600073ffffffffffffffffffffffffffffffffffffffff166001600084815260200190815260200160002060060160009054906101000a900473ffffffffffffffffffffffffffffffffffffffff1673ffffffffffffffffffffffffffffffffffffffff1614611725576040517f08c379a0000000000000000000000000000000000000000000000000000000008152600401808060200182810382526027815260200180611c346027913960400191505060405180910390fd5b806001600084815260200190815260200160002060060160006101000a81548173ffffffffffffffffffffffffffffffffffffffff021916908373ffffffffffffffffffffffffffffffffffffffff1602179055505050565b6060600080905060008090505b601081101561181457600073ffffffffffffffffffffffffffffffffffffffff166001600083815260200190815260200160002060000160009054906101000a900473ffffffffffffffffffffffffffffffffffffffff1673ffffffffffffffffffffffffffffffffffffffff16146118075781806001019250505b808060010191505061178b565b506060816040519080825280602002602001820160405280156118465781602001602082028038833980820191505090505b509050600080905060008090505b60108110156118f657600073ffffffffffffffffffffffffffffffffffffffff166001600083815260200190815260200160002060000160009054906101000a900473ffffffffffffffffffffffffffffffffffffffff1673ffffffffffffffffffffffffffffffffffffffff16146118e957808383815181106118d457fe5b60200260200101818152505081806001019250505b8080600101915050611854565b5081935050505090565b600060016000838152602001908152602001600020600401549050919050565b60608060106040519080825280602002602001820160405280156119535781602001602082028038833980820191505090505b50905060008090505b60108110156119ef576001600082815260200190815260200160002060000160009054906101000a900473ffffffffffffffffffffffffffffffffffffffff168282815181106119a857fe5b602002602001019073ffffffffffffffffffffffffffffffffffffffff16908173ffffffffffffffffffffffffffffffffffffffff1681525050808060010191505061195c565b508091505090565b828054600181600116156101000203166002900490600052602060002090601f016020900481019282601f10611a3857805160ff1916838001178555611a66565b82800160010185558215611a66579182015b82811115611a65578251825591602001919060010190611a4a565b5b509050611a739190611aea565b5090565b604051806101000160405280600073ffffffffffffffffffffffffffffffffffffffff1681526020016060815260200160608152602001600081526020016000815260200160008152602001600073ffffffffffffffffffffffffffffffffffffffff1681526020016000151581525090565b611b0c91905b80821115611b08576000816000905550600101611af0565b5090565b9056fe4f6e6c792074686520646f6e617465722063616e20726566756e642061207065744f6e6c7920746865206f776e65722063616e2077697468647261772066756e64734f6e6c79207468652070726f706f736564206e6577206f776e65722063616e2061636365707420746865207472616e7366657243616e6e6f7420726566756e6420612070657420746861742068617320612070656e64696e67207472616e73666572546869732070657420616c726561647920686173206d6178696d756d20646f6e6174696f6e4f6e6c792074686520646f6e617465722063616e20696e6974696174652061207472616e736665724f6e6c79207468652070726f706f736564206e6577206f776e65722063616e2072656a65637420746865207472616e736665725065742069732063757272656e746c7920696e766f6c76656420696e2061207472616e73666572a265627a7a72315820f15a465620cf6baf97902beafd0e98d1a7310d254194640d44362130d88ad17464736f6c63430005100032",
  "source": "pragma solidity ^0.5.0;\n\ncontract Donation {\n    address payable public owner;\n    struct Pet {\n        address payable donater;\n        string name;\n        string breed;\n        uint age;\n        uint donation;\n        uint purchaseTime;\n        address payable pendingTransfer;\n        bool isWithdrawn;\n    }\n\n\n    mapping(uint => Pet) public pets;\n\n    uint refundPeriod = 20; //14 days; // refund period\n\n    constructor() public {\n        owner = msg.sender;\n    }\n\n    // Donating a pet\n    function donate(uint petId, string memory name, string memory breed, uint age, uint price) public payable returns (uint) {\n        require(petId >= 0 && petId <= 15, \"Pet ID is not valid\");\n        require(msg.value+pets[petId].donation <= price, \"This pet already has maximum donation\");\n        uint pTime = now;\n        Pet memory newPet = Pet({\n            donater: msg.sender,\n            name: name,\n            breed: breed,\n            age: age,\n            donation: msg.value+pets[petId].donation, // donation of the pet is the sent Ether + accrued donation\n            purchaseTime: pTime,\n            pendingTransfer: address(0),\n            isWithdrawn: false\n        });\n\n        pets[petId] = newPet;\n\n        return petId;\n    }\n\n    // Retrieving the donaters\n    function getDonaters() public view returns (address[] memory) {\n        address[] memory donaters = new address[](16);\n        for (uint i = 0; i < 16; i++) {\n            donaters[i] = pets[i].donater;\n        }\n        return donaters;\n    }\n    //filt donated pets\n    function getDonatedPets() public view returns (uint[] memory) {\n        uint count = 0;\n        for (uint i = 0; i < 16; i++) {\n            if (pets[i].donater != address(0)) {\n                count++;\n            }\n        }\n\n        uint[] memory donatedPets = new uint[](count);\n        uint index = 0;\n        for (uint i = 0; i < 16; i++) {\n            if (pets[i].donater != address(0)) {\n                donatedPets[index] = i;\n                index++;\n            }\n        }\n        return donatedPets;\n    }\n    //filt donated pets\n    function getAllPets() public view returns (uint[] memory) {\n        uint[] memory petDonations = new uint[](16);\n        for (uint i = 0; i < 16; i++) {\n                petDonations[i] = pets[i].donation;\n        }\n        return petDonations;\n    }\n    //caculate totol collectable fee\n    function getTotalCollectableFee() public view returns (uint) {\n        uint totalCollectableFee = 0;\n        for (uint i = 0; i < 16; i++) {\n            if (pets[i].donater != address(0) && pets[i].isWithdrawn == false) {\n                totalCollectableFee += pets[i].donation;\n            }\n        }\n        return totalCollectableFee;\n    }\n\n    //called by the current owner of the pet to initiate a transfer\n    function transferRequest(uint petId, address payable newOwner) public {\n        require(pets[petId].donater == msg.sender, \"Only the donater can initiate a transfer\");\n        require(pets[petId].pendingTransfer == address(0), \"Pet is currently involved in a transfer\");\n        // Set a pending transfer for the pet to the new owner\n        pets[petId].pendingTransfer = newOwner;\n    }   \n\n    //allows the proposed new owner to accept the pet\n    function acceptTransfer(uint petId) public {\n        require(pets[petId].pendingTransfer == msg.sender, \"Only the proposed new owner can accept the transfer\");\n        // Update the donater and purchase time of the pet, reset the pending transfer\n        pets[petId].donater = msg.sender;\n        pets[petId].pendingTransfer = address(0);\n    }\n    //allows the proposed new owner to reject the pet\n    function rejectTransfer(uint petId) public {\n        require(pets[petId].pendingTransfer == msg.sender, \"Only the proposed new owner can reject the transfer\");\n        // Update the donater and purchase time of the pet, reset the pending transfer\n        pets[petId].pendingTransfer = address(0);\n    }\n    // Refunding the pet\n    function refund(uint petId) public {\n        require(pets[petId].donater == msg.sender, \"Only the donater can refund a pet\");\n        require(now - pets[petId].purchaseTime <= refundPeriod, \"Refund period has passed\");\n        require(pets[petId].pendingTransfer == address(0), \"Cannot refund a pet that has a pending transfer\");\n        msg.sender.transfer(pets[petId].donation);\n\n        // Reset the pet\n        pets[petId] = Pet({\n            donater: address(0),\n            name: \"\",\n            breed: \"\",\n            age: 0,\n            donation: 0,\n            purchaseTime: 0,\n            pendingTransfer: address(0),\n            isWithdrawn: false\n        });\n    }\n\n    //The owner can withdraw the contract\n   function withdraw() public {\n    require(msg.sender == owner, \"Only the owner can withdraw funds\");\n        //uint256 amount =0;\n        // Check all pets\n        for (uint i = 0; i < 16; i++) {\n            Pet storage pet = pets[i];\n\n            // If a pet is donated and the refund period is over and the funds have not been withdrawn yet\n            if (pet.donater != address(0) && (now - pet.purchaseTime > refundPeriod) && !pet.isWithdrawn) {\n\n                uint256 amount = pet.donation;\n\n                // Transfer the funds\n                owner.transfer(amount);\n\n                // Update the price and the isWithdrawn flag\n                pet.isWithdrawn = true;\n            }\n        }\n       //return amount;\n    }\n\n    //return total donations on the pet\n    function getDonation(uint petId) public view returns (uint) {\n        return pets[petId].donation;\n    }\n}\n\n",
  "sourcePath": "F:/UofT/1050/Petshop/contracts/Donation.sol",
  "compiler": {
    "name": "solc",
    "version": "0.5.16+commit.9c3226ce.Emscripten.clang"
  },
  "schemaVersion": "3.0.22",
  "updatedAt": "2023-11-14T22:54:17.980Z",
  "devdoc": {
    "methods": {}
  },
  "userdoc": {
    "methods": {}
  }
}